{
  "contractName": "AccountStorage",
  "abi": [
    {
      "inputs": [
        {
          "internalType": "contract AccountIngress",
          "name": "_ingressContract",
          "type": "address"
        }
      ],
      "stateMutability": "nonpayable",
      "type": "constructor"
    },
    {
      "anonymous": false,
      "inputs": [
        {
          "indexed": false,
          "internalType": "address",
          "name": "oldAddress",
          "type": "address"
        },
        {
          "indexed": false,
          "internalType": "address",
          "name": "newAddress",
          "type": "address"
        }
      ],
      "name": "VersionChange",
      "type": "event"
    },
    {
      "inputs": [
        {
          "internalType": "uint256",
          "name": "",
          "type": "uint256"
        }
      ],
      "name": "allowlist",
      "outputs": [
        {
          "internalType": "address",
          "name": "",
          "type": "address"
        }
      ],
      "stateMutability": "view",
      "type": "function",
      "constant": true
    },
    {
      "inputs": [
        {
          "internalType": "address",
          "name": "_newVersion",
          "type": "address"
        }
      ],
      "name": "upgradeVersion",
      "outputs": [],
      "stateMutability": "nonpayable",
      "type": "function"
    },
    {
      "inputs": [],
      "name": "size",
      "outputs": [
        {
          "internalType": "uint256",
          "name": "",
          "type": "uint256"
        }
      ],
      "stateMutability": "view",
      "type": "function",
      "constant": true
    },
    {
      "inputs": [
        {
          "internalType": "address",
          "name": "_account",
          "type": "address"
        }
      ],
      "name": "exists",
      "outputs": [
        {
          "internalType": "bool",
          "name": "",
          "type": "bool"
        }
      ],
      "stateMutability": "view",
      "type": "function",
      "constant": true
    },
    {
      "inputs": [
        {
          "internalType": "address",
          "name": "_account",
          "type": "address"
        }
      ],
      "name": "add",
      "outputs": [
        {
          "internalType": "bool",
          "name": "",
          "type": "bool"
        }
      ],
      "stateMutability": "nonpayable",
      "type": "function"
    },
    {
      "inputs": [
        {
          "internalType": "address",
          "name": "_account",
          "type": "address"
        }
      ],
      "name": "remove",
      "outputs": [
        {
          "internalType": "bool",
          "name": "",
          "type": "bool"
        }
      ],
      "stateMutability": "nonpayable",
      "type": "function"
    },
    {
      "inputs": [
        {
          "internalType": "uint256",
          "name": "index",
          "type": "uint256"
        }
      ],
      "name": "getByIndex",
      "outputs": [
        {
          "internalType": "address",
          "name": "account",
          "type": "address"
        }
      ],
      "stateMutability": "view",
      "type": "function",
      "constant": true
    },
    {
      "inputs": [],
      "name": "getAccounts",
      "outputs": [
        {
          "internalType": "address[]",
          "name": "",
          "type": "address[]"
        }
      ],
      "stateMutability": "view",
      "type": "function",
      "constant": true
    }
  ],
  "bytecode": "0x6080604052336000806101000a81548173ffffffffffffffffffffffffffffffffffffffff021916908373ffffffffffffffffffffffffffffffffffffffff16021790555033600160006101000a81548173ffffffffffffffffffffffffffffffffffffffff021916908373ffffffffffffffffffffffffffffffffffffffff1602179055503480156200009257600080fd5b50604051620016a0380380620016a08339818101604052810190620000b89190620002c6565b80600260006101000a81548173ffffffffffffffffffffffffffffffffffffffff021916908373ffffffffffffffffffffffffffffffffffffffff1602179055506200010a336200011260201b60201c565b505062000408565b60008060009054906101000a900473ffffffffffffffffffffffffffffffffffffffff1673ffffffffffffffffffffffffffffffffffffffff163373ffffffffffffffffffffffffffffffffffffffff1614620001a6576040517f08c379a00000000000000000000000000000000000000000000000000000000081526004016200019d906200031f565b60405180910390fd5b6000600460008473ffffffffffffffffffffffffffffffffffffffff1673ffffffffffffffffffffffffffffffffffffffff168152602001908152602001600020541415620002a5576003829080600181540180825580915050600190039060005260206000200160009091909190916101000a81548173ffffffffffffffffffffffffffffffffffffffff021916908373ffffffffffffffffffffffffffffffffffffffff160217905550600380549050600460008473ffffffffffffffffffffffffffffffffffffffff1673ffffffffffffffffffffffffffffffffffffffff1681526020019081526020016000208190555060019050620002aa565b600090505b919050565b600081519050620002c081620003ee565b92915050565b600060208284031215620002df57620002de6200039a565b5b6000620002ef84828501620002af565b91505092915050565b600062000307602a8362000341565b915062000314826200039f565b604082019050919050565b600060208201905081810360008301526200033a81620002f8565b9050919050565b600082825260208201905092915050565b60006200035f826200037a565b9050919050565b6000620003738262000352565b9050919050565b600073ffffffffffffffffffffffffffffffffffffffff82169050919050565b600080fd5b7f6f6e6c7920746865206c617465737456657273696f6e2063616e206d6f64696660008201527f7920746865206c69737400000000000000000000000000000000000000000000602082015250565b620003f98162000366565b81146200040557600080fd5b50565b61128880620004186000396000f3fe608060405234801561001057600080fd5b50600436106100885760003560e01c80638a48ac031161005b5780638a48ac031461014d578063949d225d1461016b578063d28eb96314610189578063f6a3d24e146101a557610088565b80630a3b0a4f1461008d57806329092d0e146100bd5780632d883a73146100ed57806369c458241461011d575b600080fd5b6100a760048036038101906100a29190610bf3565b6101d5565b6040516100b49190610e87565b60405180910390f35b6100d760048036038101906100d29190610bf3565b61036d565b6040516100e49190610e87565b60405180910390f35b61010760048036038101906101029190610ca7565b61060c565b6040516101149190610e21565b60405180910390f35b61013760048036038101906101329190610ca7565b610654565b6040516101449190610e21565b60405180910390f35b610155610693565b6040516101629190610e65565b60405180910390f35b610173610721565b6040516101809190610f3d565b60405180910390f35b6101a3600480360381019061019e9190610bf3565b61072e565b005b6101bf60048036038101906101ba9190610bf3565b610b3e565b6040516101cc9190610e87565b60405180910390f35b60008060009054906101000a900473ffffffffffffffffffffffffffffffffffffffff1673ffffffffffffffffffffffffffffffffffffffff163373ffffffffffffffffffffffffffffffffffffffff1614610266576040517f08c379a000000000000000000000000000000000000000000000000000000000815260040161025d90610ebd565b60405180910390fd5b6000600460008473ffffffffffffffffffffffffffffffffffffffff1673ffffffffffffffffffffffffffffffffffffffff168152602001908152602001600020541415610363576003829080600181540180825580915050600190039060005260206000200160009091909190916101000a81548173ffffffffffffffffffffffffffffffffffffffff021916908373ffffffffffffffffffffffffffffffffffffffff160217905550600380549050600460008473ffffffffffffffffffffffffffffffffffffffff1673ffffffffffffffffffffffffffffffffffffffff1681526020019081526020016000208190555060019050610368565b600090505b919050565b60008060009054906101000a900473ffffffffffffffffffffffffffffffffffffffff1673ffffffffffffffffffffffffffffffffffffffff163373ffffffffffffffffffffffffffffffffffffffff16146103fe576040517f08c379a00000000000000000000000000000000000000000000000000000000081526004016103f590610ebd565b60405180910390fd5b6000600460008473ffffffffffffffffffffffffffffffffffffffff1673ffffffffffffffffffffffffffffffffffffffff16815260200190815260200160002054905060008111801561045757506003805490508111155b1561060157600380549050811461056b5760006003600160038054905061047e9190610fa2565b8154811061048f5761048e611086565b5b9060005260206000200160009054906101000a900473ffffffffffffffffffffffffffffffffffffffff1690508060036001846104cc9190610fa2565b815481106104dd576104dc611086565b5b9060005260206000200160006101000a81548173ffffffffffffffffffffffffffffffffffffffff021916908373ffffffffffffffffffffffffffffffffffffffff16021790555081600460008373ffffffffffffffffffffffffffffffffffffffff1673ffffffffffffffffffffffffffffffffffffffff16815260200190815260200160002081905550505b600380548061057d5761057c611057565b5b6001900381819060005260206000200160006101000a81549073ffffffffffffffffffffffffffffffffffffffff021916905590556000600460008573ffffffffffffffffffffffffffffffffffffffff1673ffffffffffffffffffffffffffffffffffffffff168152602001908152602001600020819055506001915050610607565b60009150505b919050565b60006003828154811061062257610621611086565b5b9060005260206000200160009054906101000a900473ffffffffffffffffffffffffffffffffffffffff169050919050565b6003818154811061066457600080fd5b906000526020600020016000915054906101000a900473ffffffffffffffffffffffffffffffffffffffff1681565b6060600380548060200260200160405190810160405280929190818152602001828054801561071757602002820191906000526020600020905b8160009054906101000a900473ffffffffffffffffffffffffffffffffffffffff1673ffffffffffffffffffffffffffffffffffffffff16815260200190600101908083116106cd575b5050505050905090565b6000600380549050905090565b600260009054906101000a900473ffffffffffffffffffffffffffffffffffffffff1673ffffffffffffffffffffffffffffffffffffffff16600073ffffffffffffffffffffffffffffffffffffffff16141561081a57600160009054906101000a900473ffffffffffffffffffffffffffffffffffffffff1673ffffffffffffffffffffffffffffffffffffffff163373ffffffffffffffffffffffffffffffffffffffff1614610815576040517f08c379a000000000000000000000000000000000000000000000000000000000815260040161080c90610efd565b60405180910390fd5b610aa2565b6000600260009054906101000a900473ffffffffffffffffffffffffffffffffffffffff1673ffffffffffffffffffffffffffffffffffffffff16630d2020dd600260009054906101000a900473ffffffffffffffffffffffffffffffffffffffff1673ffffffffffffffffffffffffffffffffffffffff16631e7c27cb6040518163ffffffff1660e01b815260040160206040518083038186803b1580156108c257600080fd5b505afa1580156108d6573d6000803e3d6000fd5b505050506040513d601f19601f820116820180604052508101906108fa9190610c7a565b6040518263ffffffff1660e01b81526004016109169190610ea2565b60206040518083038186803b15801561092e57600080fd5b505afa158015610942573d6000803e3d6000fd5b505050506040513d601f19601f820116820180604052508101906109669190610c20565b9050600073ffffffffffffffffffffffffffffffffffffffff168173ffffffffffffffffffffffffffffffffffffffff1614156109d8576040517f08c379a00000000000000000000000000000000000000000000000000000000081526004016109cf90610f1d565b60405180910390fd5b8073ffffffffffffffffffffffffffffffffffffffff1663fe9fbb80336040518263ffffffff1660e01b8152600401610a119190610e21565b60206040518083038186803b158015610a2957600080fd5b505afa158015610a3d573d6000803e3d6000fd5b505050506040513d601f19601f82011682018060405250810190610a619190610c4d565b610aa0576040517f08c379a0000000000000000000000000000000000000000000000000000000008152600401610a9790610edd565b60405180910390fd5b505b7f0c39c5a3f05921b7fb440fdd6cefa724ee3a8bc55b4398c28f209c727fb8b01160008054906101000a900473ffffffffffffffffffffffffffffffffffffffff1682604051610af3929190610e3c565b60405180910390a1806000806101000a81548173ffffffffffffffffffffffffffffffffffffffff021916908373ffffffffffffffffffffffffffffffffffffffff16021790555050565b600080600460008473ffffffffffffffffffffffffffffffffffffffff1673ffffffffffffffffffffffffffffffffffffffff1681526020019081526020016000205414159050919050565b600081359050610b99816111f6565b92915050565b600081519050610bae816111f6565b92915050565b600081519050610bc38161120d565b92915050565b600081519050610bd881611224565b92915050565b600081359050610bed8161123b565b92915050565b600060208284031215610c0957610c086110b5565b5b6000610c1784828501610b8a565b91505092915050565b600060208284031215610c3657610c356110b5565b5b6000610c4484828501610b9f565b91505092915050565b600060208284031215610c6357610c626110b5565b5b6000610c7184828501610bb4565b91505092915050565b600060208284031215610c9057610c8f6110b5565b5b6000610c9e84828501610bc9565b91505092915050565b600060208284031215610cbd57610cbc6110b5565b5b6000610ccb84828501610bde565b91505092915050565b6000610ce08383610cec565b60208301905092915050565b610cf581610fd6565b82525050565b610d0481610fd6565b82525050565b6000610d1582610f68565b610d1f8185610f80565b9350610d2a83610f58565b8060005b83811015610d5b578151610d428882610cd4565b9750610d4d83610f73565b925050600181019050610d2e565b5085935050505092915050565b610d7181610fe8565b82525050565b610d8081610ff4565b82525050565b6000610d93602a83610f91565b9150610d9e826110ba565b604082019050919050565b6000610db6601583610f91565b9150610dc182611109565b602082019050919050565b6000610dd9604483610f91565b9150610de482611132565b606082019050919050565b6000610dfc603483610f91565b9150610e07826111a7565b604082019050919050565b610e1b8161101e565b82525050565b6000602082019050610e366000830184610cfb565b92915050565b6000604082019050610e516000830185610cfb565b610e5e6020830184610cfb565b9392505050565b60006020820190508181036000830152610e7f8184610d0a565b905092915050565b6000602082019050610e9c6000830184610d68565b92915050565b6000602082019050610eb76000830184610d77565b92915050565b60006020820190508181036000830152610ed681610d86565b9050919050565b60006020820190508181036000830152610ef681610da9565b9050919050565b60006020820190508181036000830152610f1681610dcc565b9050919050565b60006020820190508181036000830152610f3681610def565b9050919050565b6000602082019050610f526000830184610e12565b92915050565b6000819050602082019050919050565b600081519050919050565b6000602082019050919050565b600082825260208201905092915050565b600082825260208201905092915050565b6000610fad8261101e565b9150610fb88361101e565b925082821015610fcb57610fca611028565b5b828203905092915050565b6000610fe182610ffe565b9050919050565b60008115159050919050565b6000819050919050565b600073ffffffffffffffffffffffffffffffffffffffff82169050919050565b6000819050919050565b7f4e487b7100000000000000000000000000000000000000000000000000000000600052601160045260246000fd5b7f4e487b7100000000000000000000000000000000000000000000000000000000600052603160045260246000fd5b7f4e487b7100000000000000000000000000000000000000000000000000000000600052603260045260246000fd5b600080fd5b7f6f6e6c7920746865206c617465737456657273696f6e2063616e206d6f64696660008201527f7920746865206c69737400000000000000000000000000000000000000000000602082015250565b7f53656e646572206e6f7420617574686f72697a65640000000000000000000000600082015250565b7f6f6e6c79206f776e6572207065726d69747465642073696e636520696e67726560008201527f7373436f6e7472616374206973206578706c696369746c792073657420746f2060208201527f7a65726f00000000000000000000000000000000000000000000000000000000604082015250565b7f496e677265737320636f6e7472616374206d75737420686176652041646d696e60008201527f20636f6e74726163742072656769737465726564000000000000000000000000602082015250565b6111ff81610fd6565b811461120a57600080fd5b50565b61121681610fe8565b811461122157600080fd5b50565b61122d81610ff4565b811461123857600080fd5b50565b6112448161101e565b811461124f57600080fd5b5056fea26469706673582212204a22365bb018f7cd51d3c75228e958ae1621fa6dc897749f402dad34e3fcfa6b64736f6c63430008060033",
  "immutableReferences": {},
  "source": "/*\n * Copyright ConsenSys AG.\n *\n * Licensed under the Apache License, Version 2.0 (the \"License\"); you may not use this file except in compliance with\n * the License. You may obtain a copy of the License at\n *\n * http://www.apache.org/licenses/LICENSE-2.0\n *\n * Unless required by applicable law or agreed to in writing, software distributed under the License is distributed on\n * an \"AS IS\" BASIS, WITHOUT WARRANTIES OR CONDITIONS OF ANY KIND, either express or implied. See the License for the\n * specific language governing permissions and limitations under the License.\n *\n * SPDX-License-Identifier: Apache-2.0\n */\npragma solidity >=0.6.0 <0.9.0;\n\nimport \"./Admin.sol\";\nimport \"./AccountIngress.sol\";\n\n\ncontract AccountStorage {\n    event VersionChange(\n        address oldAddress,\n        address newAddress\n    );\n    // initialize this to the deployer of this contract\n    address private latestVersion = msg.sender;\n    address private owner = msg.sender;\n\n    AccountIngress private ingressContract;\n\n    address[] public allowlist;\n    mapping (address => uint256) private indexOf; //1 based indexing. 0 means non-existent\n\n    constructor (AccountIngress _ingressContract) public {\n        ingressContract = _ingressContract;\n        add(msg.sender);\n    }\n\n    modifier onlyLatestVersion() {\n        require(msg.sender == latestVersion, \"only the latestVersion can modify the list\");\n        _;\n    }\n\n    modifier onlyAdmin() {\n        if (address(0) == address(ingressContract)) {\n            require(msg.sender == owner, \"only owner permitted since ingressContract is explicitly set to zero\");\n        } else {\n            address adminContractAddress = ingressContract.getContractAddress(ingressContract.ADMIN_CONTRACT());\n\n            require(adminContractAddress != address(0), \"Ingress contract must have Admin contract registered\");\n            require(Admin(adminContractAddress).isAuthorized(msg.sender), \"Sender not authorized\");\n        }\n        _;\n    }\n\n    function upgradeVersion(address _newVersion) public onlyAdmin {\n        emit VersionChange(latestVersion, _newVersion);\n        latestVersion = _newVersion;\n    }\n\n    function size() public view returns (uint256) {\n        return allowlist.length;\n    }\n\n    function exists(address _account) public view returns (bool) {\n        return indexOf[_account] != 0;\n    }\n\n    function add(address _account) public onlyLatestVersion returns (bool) {\n        if (indexOf[_account] == 0) {\n            allowlist.push(_account);\n            indexOf[_account] = allowlist.length;\n            return true;\n        }\n        return false;\n    }\n\n    function remove(address _account) public onlyLatestVersion returns (bool) {\n        uint256 index = indexOf[_account];\n        if (index > 0 && index <= allowlist.length) { //1-based indexing\n            //move last address into index being vacated (unless we are dealing with last index)\n            if (index != allowlist.length) {\n                address lastAccount = allowlist[allowlist.length - 1];\n                allowlist[index - 1] = lastAccount;\n                indexOf[lastAccount] = index;\n            }\n\n            //shrink array\n            allowlist.pop();\n            indexOf[_account] = 0;\n            return true;\n        }\n        return false;\n    }\n\n    function getByIndex(uint index) public view returns (address account) {\n        return allowlist[index];\n    }\n\n    function getAccounts() public view returns (address[] memory){\n        return allowlist;\n    }\n}\n",
  "sourcePath": "/Users/ascatox/Documents/Servers/besu/smart-contracts/permissioning-smart-contracts/contracts/AccountStorage.sol",
  "compiler": {
    "name": "solc",
    "version": "0.8.6+commit.11564f7e.Emscripten.clang"
  },
  "schemaVersion": "3.4.13",
  "updatedAt": "2023-07-10T13:24:30.161Z",
  "networkType": "ethereum",
  "devdoc": {
    "kind": "dev",
    "methods": {},
    "version": 1
  },
  "userdoc": {
    "kind": "user",
    "methods": {},
    "version": 1
  }
}