{
  "contractName": "ExposedAccountRulesList",
  "abi": [
    {
      "anonymous": false,
      "inputs": [
        {
          "indexed": false,
          "internalType": "bool",
          "name": "accountAdded",
          "type": "bool"
        },
        {
          "indexed": false,
          "internalType": "address",
          "name": "accountAddress",
          "type": "address"
        }
      ],
      "name": "AccountAdded",
      "type": "event"
    },
    {
      "anonymous": false,
      "inputs": [
        {
          "indexed": false,
          "internalType": "bool",
          "name": "accountRemoved",
          "type": "bool"
        },
        {
          "indexed": false,
          "internalType": "address",
          "name": "accountAddress",
          "type": "address"
        }
      ],
      "name": "AccountRemoved",
      "type": "event"
    },
    {
      "inputs": [],
      "name": "getAccounts",
      "outputs": [
        {
          "internalType": "address[]",
          "name": "",
          "type": "address[]"
        }
      ],
      "stateMutability": "view",
      "type": "function"
    },
    {
      "inputs": [
        {
          "internalType": "uint256",
          "name": "index",
          "type": "uint256"
        }
      ],
      "name": "getByIndex",
      "outputs": [
        {
          "internalType": "address",
          "name": "account",
          "type": "address"
        }
      ],
      "stateMutability": "view",
      "type": "function"
    },
    {
      "inputs": [
        {
          "internalType": "contract AccountStorage",
          "name": "_storage",
          "type": "address"
        }
      ],
      "name": "_setStorage",
      "outputs": [],
      "stateMutability": "nonpayable",
      "type": "function"
    },
    {
      "inputs": [],
      "name": "_size",
      "outputs": [
        {
          "internalType": "uint256",
          "name": "",
          "type": "uint256"
        }
      ],
      "stateMutability": "view",
      "type": "function"
    },
    {
      "inputs": [
        {
          "internalType": "address",
          "name": "_account",
          "type": "address"
        }
      ],
      "name": "_exists",
      "outputs": [
        {
          "internalType": "bool",
          "name": "",
          "type": "bool"
        }
      ],
      "stateMutability": "view",
      "type": "function"
    },
    {
      "inputs": [
        {
          "internalType": "address",
          "name": "_account",
          "type": "address"
        }
      ],
      "name": "_add",
      "outputs": [
        {
          "internalType": "bool",
          "name": "",
          "type": "bool"
        }
      ],
      "stateMutability": "nonpayable",
      "type": "function"
    },
    {
      "inputs": [
        {
          "internalType": "address[]",
          "name": "accounts",
          "type": "address[]"
        }
      ],
      "name": "_addAll",
      "outputs": [
        {
          "internalType": "bool",
          "name": "",
          "type": "bool"
        }
      ],
      "stateMutability": "nonpayable",
      "type": "function"
    },
    {
      "inputs": [
        {
          "internalType": "address",
          "name": "_account",
          "type": "address"
        }
      ],
      "name": "_remove",
      "outputs": [
        {
          "internalType": "bool",
          "name": "",
          "type": "bool"
        }
      ],
      "stateMutability": "nonpayable",
      "type": "function"
    }
  ],
  "bytecode": "0x608060405234801561001057600080fd5b50610e9f806100206000396000f3fe608060405234801561001057600080fd5b50600436106100885760003560e01c80639c2bc4271161005b5780639c2bc42714610127578063c3b3a3c914610157578063c80847ea14610187578063d136d90c146101b757610088565b806310d426f21461008d5780632d883a73146100bd5780634bc06108146100ed5780638a48ac0314610109575b600080fd5b6100a760048036038101906100a29190610906565b6101d5565b6040516100b49190610b99565b60405180910390f35b6100d760048036038101906100d29190610a50565b6101e7565b6040516100e49190610b5c565b60405180910390f35b61010760048036038101906101029190610a23565b61029a565b005b6101116102a6565b60405161011e9190610b77565b60405180910390f35b610141600480360381019061013c9190610960565b610350565b60405161014e9190610b99565b60405180910390f35b610171600480360381019061016c9190610906565b6103a4565b60405161017e9190610b99565b60405180910390f35b6101a1600480360381019061019c9190610906565b6103b6565b6040516101ae9190610b99565b60405180910390f35b6101bf6103c8565b6040516101cc9190610bdd565b60405180910390f35b60006101e0826103d7565b9050919050565b60008060009054906101000a900473ffffffffffffffffffffffffffffffffffffffff1673ffffffffffffffffffffffffffffffffffffffff16632d883a73836040518263ffffffff1660e01b81526004016102439190610bdd565b60206040518083038186803b15801561025b57600080fd5b505afa15801561026f573d6000803e3d6000fd5b505050506040513d601f19601f820116820180604052508101906102939190610933565b9050919050565b6102a38161048c565b50565b606060008054906101000a900473ffffffffffffffffffffffffffffffffffffffff1673ffffffffffffffffffffffffffffffffffffffff16638a48ac036040518163ffffffff1660e01b815260040160006040518083038186803b15801561030e57600080fd5b505afa158015610322573d6000803e3d6000fd5b505050506040513d6000823e3d601f19601f8201168201806040525081019061034b91906109ad565b905090565b600061039c838380806020026020016040519081016040528093929190818152602001838360200280828437600081840152601f19601f820116905080830192505050505050506104cf565b905092915050565b60006103af82610586565b9050919050565b60006103c182610639565b9050919050565b60006103d26106ee565b905090565b60008060009054906101000a900473ffffffffffffffffffffffffffffffffffffffff1673ffffffffffffffffffffffffffffffffffffffff166329092d0e836040518263ffffffff1660e01b81526004016104339190610b5c565b602060405180830381600087803b15801561044d57600080fd5b505af1158015610461573d6000803e3d6000fd5b505050506040513d601f19601f8201168201806040525081019061048591906109f6565b9050919050565b806000806101000a81548173ffffffffffffffffffffffffffffffffffffffff021916908373ffffffffffffffffffffffffffffffffffffffff16021790555050565b6000806001905060005b835181101561057c5760006105078583815181106104fa576104f9610d85565b5b6020026020010151610639565b90507fe39119db1877d19873ffb44540ac1dbd9ca72da5413d351392ce967885031aa48186848151811061053e5761053d610d85565b5b6020026020010151604051610554929190610bb4565b60405180910390a18280156105665750805b925050808061057490610d0d565b9150506104d9565b5080915050919050565b60008060009054906101000a900473ffffffffffffffffffffffffffffffffffffffff1673ffffffffffffffffffffffffffffffffffffffff1663f6a3d24e836040518263ffffffff1660e01b81526004016105e29190610b5c565b60206040518083038186803b1580156105fa57600080fd5b505afa15801561060e573d6000803e3d6000fd5b505050506040513d601f19601f8201168201806040525081019061063291906109f6565b9050919050565b60008060009054906101000a900473ffffffffffffffffffffffffffffffffffffffff1673ffffffffffffffffffffffffffffffffffffffff16630a3b0a4f836040518263ffffffff1660e01b81526004016106959190610b5c565b602060405180830381600087803b1580156106af57600080fd5b505af11580156106c3573d6000803e3d6000fd5b505050506040513d601f19601f820116820180604052508101906106e791906109f6565b9050919050565b60008060009054906101000a900473ffffffffffffffffffffffffffffffffffffffff1673ffffffffffffffffffffffffffffffffffffffff1663949d225d6040518163ffffffff1660e01b815260040160206040518083038186803b15801561075757600080fd5b505afa15801561076b573d6000803e3d6000fd5b505050506040513d601f19601f8201168201806040525081019061078f9190610a7d565b905090565b60006107a76107a284610c1d565b610bf8565b905080838252602082019050828560208602820111156107ca576107c9610ded565b5b60005b858110156107fa57816107e08882610819565b8452602084019350602083019250506001810190506107cd565b5050509392505050565b60008135905061081381610e0d565b92915050565b60008151905061082881610e0d565b92915050565b60008083601f84011261084457610843610de8565b5b8235905067ffffffffffffffff81111561086157610860610de3565b5b60208301915083602082028301111561087d5761087c610ded565b5b9250929050565b600082601f83011261089957610898610de8565b5b81516108a9848260208601610794565b91505092915050565b6000815190506108c181610e24565b92915050565b6000813590506108d681610e3b565b92915050565b6000813590506108eb81610e52565b92915050565b60008151905061090081610e52565b92915050565b60006020828403121561091c5761091b610df7565b5b600061092a84828501610804565b91505092915050565b60006020828403121561094957610948610df7565b5b600061095784828501610819565b91505092915050565b6000806020838503121561097757610976610df7565b5b600083013567ffffffffffffffff81111561099557610994610df2565b5b6109a18582860161082e565b92509250509250929050565b6000602082840312156109c3576109c2610df7565b5b600082015167ffffffffffffffff8111156109e1576109e0610df2565b5b6109ed84828501610884565b91505092915050565b600060208284031215610a0c57610a0b610df7565b5b6000610a1a848285016108b2565b91505092915050565b600060208284031215610a3957610a38610df7565b5b6000610a47848285016108c7565b91505092915050565b600060208284031215610a6657610a65610df7565b5b6000610a74848285016108dc565b91505092915050565b600060208284031215610a9357610a92610df7565b5b6000610aa1848285016108f1565b91505092915050565b6000610ab68383610ac2565b60208301905092915050565b610acb81610c82565b82525050565b610ada81610c82565b82525050565b6000610aeb82610c59565b610af58185610c71565b9350610b0083610c49565b8060005b83811015610b31578151610b188882610aaa565b9750610b2383610c64565b925050600181019050610b04565b5085935050505092915050565b610b4781610c94565b82525050565b610b5681610cd2565b82525050565b6000602082019050610b716000830184610ad1565b92915050565b60006020820190508181036000830152610b918184610ae0565b905092915050565b6000602082019050610bae6000830184610b3e565b92915050565b6000604082019050610bc96000830185610b3e565b610bd66020830184610ad1565b9392505050565b6000602082019050610bf26000830184610b4d565b92915050565b6000610c02610c13565b9050610c0e8282610cdc565b919050565b6000604051905090565b600067ffffffffffffffff821115610c3857610c37610db4565b5b602082029050602081019050919050565b6000819050602082019050919050565b600081519050919050565b6000602082019050919050565b600082825260208201905092915050565b6000610c8d82610cb2565b9050919050565b60008115159050919050565b6000610cab82610c82565b9050919050565b600073ffffffffffffffffffffffffffffffffffffffff82169050919050565b6000819050919050565b610ce582610dfc565b810181811067ffffffffffffffff82111715610d0457610d03610db4565b5b80604052505050565b6000610d1882610cd2565b91507fffffffffffffffffffffffffffffffffffffffffffffffffffffffffffffffff821415610d4b57610d4a610d56565b5b600182019050919050565b7f4e487b7100000000000000000000000000000000000000000000000000000000600052601160045260246000fd5b7f4e487b7100000000000000000000000000000000000000000000000000000000600052603260045260246000fd5b7f4e487b7100000000000000000000000000000000000000000000000000000000600052604160045260246000fd5b600080fd5b600080fd5b600080fd5b600080fd5b600080fd5b6000601f19601f8301169050919050565b610e1681610c82565b8114610e2157600080fd5b50565b610e2d81610c94565b8114610e3857600080fd5b50565b610e4481610ca0565b8114610e4f57600080fd5b50565b610e5b81610cd2565b8114610e6657600080fd5b5056fea26469706673582212204dbcb59806a1f9d9c275a5ffc0f4f139499a3d502ca79ab89a8bb38251998d8864736f6c63430008060033",
  "immutableReferences": {},
  "source": "/*\n * Copyright ConsenSys AG.\n *\n * Licensed under the Apache License, Version 2.0 (the \"License\"); you may not use this file except in compliance with\n * the License. You may obtain a copy of the License at\n *\n * http://www.apache.org/licenses/LICENSE-2.0\n *\n * Unless required by applicable law or agreed to in writing, software distributed under the License is distributed on\n * an \"AS IS\" BASIS, WITHOUT WARRANTIES OR CONDITIONS OF ANY KIND, either express or implied. See the License for the\n * specific language governing permissions and limitations under the License.\n *\n * SPDX-License-Identifier: Apache-2.0\n */\npragma solidity >=0.6.0 <0.9.0;\n\nimport \"./AccountRulesList.sol\";\nimport \"./AccountStorage.sol\";\n\n\ncontract ExposedAccountRulesList is AccountRulesList {\n\n    function _setStorage(AccountStorage _storage) public {\n        return setStorage(_storage);\n    }\n\n    function _size() external view returns (uint256) {\n        return size();\n    }\n\n    function _exists(address _account) external view returns (bool) {\n        return exists(_account);\n    }\n\n    function _add(address _account) external returns (bool) {\n        return add(_account);\n    }\n\n    function _addAll(address[] calldata accounts) external returns (bool) {\n        return addAll(accounts);\n    }\n\n    function _remove(address _account) external returns (bool) {\n        return remove(_account);\n    }\n}\n",
  "sourcePath": "/Users/ascatox/Documents/Servers/besu/smart-contracts/permissioning-smart-contracts/contracts/ExposedAccountRulesList.sol",
  "compiler": {
    "name": "solc",
    "version": "0.8.6+commit.11564f7e.Emscripten.clang"
  },
  "schemaVersion": "3.4.13",
  "updatedAt": "2023-07-10T12:46:48.316Z",
  "devdoc": {
    "kind": "dev",
    "methods": {},
    "version": 1
  },
  "userdoc": {
    "kind": "user",
    "methods": {},
    "version": 1
  }
}